:060000000A128A11122809
:10000800FE00030E83120313A1000408A2000A08CD
:10001800A3007F08A4000A128A11D62A0A128A119C
:1000280015288317B330FD000D30FE00FC30FF00AB
:10003800903084000A128A15AC250A128A1183139B
:10004800F030FD000730FE005A30FF00A030840079
:100058000A128A15AC250A128A115E30FD000D308D
:10006800FE009830FF004E3084000A128A15AC2535
:10007800DE01DF01E001FB01FC01FD0183010A1241
:100088008A11462841308400831203134E088313D3
:100098008000840A4F088000840A50088000840A7F
:1000A80051088000840A520880000A128A1507271E
:1000B8000A128A11831203138C1C6428FB01FC01A9
:1000C80006307D02031C70280530BE003E08FD0086
:1000D8005F30BE003E08D6005503031DC828903087
:1000E800A5000130A6000A128A15D9250A128A111C
:1000F800831203132608C7002508C600D501063059
:10010800BE003E08FD00DE01DF01902804308312A6
:10011800031355060319C4280A128A15BE270A12A2
:100128008A11903083120313A5000130A60006300F
:10013800A7000030A80057300A128A157F270A1234
:100148008A11903083120313B5000130B6000130D4
:10015800B7000030B8004708BA004608B9000A12CC
:100168008A1543260A128A11023083120313550690
:10017800031D8A28D5010A128A11F7260A128A1144
:1001880083120313DE01DF0106305506031DDB2849
:100198000A128A11F7260A128A1183120313D5014B
:1001A800D50A0630BE003E08FD00DE01DF01023040
:1001B8005506031DEB286008031DEB287D08031D69
:1001C800EB2800300A128A156B260A128A110230AF
:1001D800831203135506031DFD286003031DFD2824
:1001E8007D03031DFD2801300A128A156B260A12A9
:1001F8008A110230831203135506031D1129023098
:100208006006031D112902307D06031D11290230E5
:100218000A128A156B260A128A11023083120313F6
:100228005506031D252903306006031D25290330C3
:100238007D06031D252903300A128A156B260A122A
:100248008A110230831203135506031D392904301D
:100258006006031D392904307D06031D3929043041
:100268000A128A156B260A128A11023083120313A6
:100278005506031D8A2905306006031D8A290530A5
:100288007D06031D8A2920305706031D6229203068
:100298005806031D622920305906031D62292030A3
:1002A8005A06031D622920305B06031D62295F3050
:1002B8005606031D6229D501D50A682905300A1298
:1002C8008A156B260A128A11573083120313A50068
:1002D8000030A6000A128A15D9250A128A1183123B
:1002E80003132608C9002508C8005730B500003098
:1002F800B6000130B7000030B8004908BA00480815
:10030800B9000A128A1543260A128A110330831289
:1003180003135506031D442A02306002031C442AB5
:1003280002307D02031C442A06307D020318C829C6
:10033800A030A5000030A6000A128A15D9250A1295
:100348008A1100308312031326020630031925028E
:100358000318C8294130BE003E08A5007D08BF002B
:10036800C001BF09C009BF0A0319C00A3F08063EF9
:10037800A60040080318013E003EA700A0300A125C
:100388008A15D0260A128A11A03083120313A500F9
:100398000030A6000A128A15D9250A128A110030DF
:1003A800831203132602073003192502031CE229CE
:1003B800A0300A128A1542270A128A114130831284
:1003C8000313BE003E08A5000430A6000030A700B5
:1003D800A0300A128A15D0260A128A118312031332
:1003E800D5010630BE003E08FD00DE01DF01A03069
:1003F800A5000030A6000A128A15D9250A128A110A
:10040800831203132608CB002508CA00063083127E
:10041800031355060319392A0A128A15BE270A1228
:100428008A11A03083120313A5000030A6000630FD
:10043800A7000030A80057300A128A157F270A1231
:100448008A11A03083120313B5000030B6000130C2
:10045800B7000030B8004B08BA004A08B9000A12C1
:100468008A1543260A128A110A2A0A128A11F726BD
:100478000A128A1183120313D501D50ADE01DF019E
:1004880004305506031D9F2AD5010630BE003E08DC
:10049800FD00DE01DF010A128A159B260A128A1165
:1004A800A03083120313A5000030A6000A128A1593
:1004B800D9250A128A11831203132608CD002508AC
:1004C800CC0006308312031355060319942A0A1226
:1004D8008A15BE270A128A11A03083120313A500B9
:1004E8000030A6000630A7000030A80057300A12D6
:1004F8008A157F270A128A11A03083120313B500C8
:100508000030B6000130B7000030B8004D08BA001E
:100518004C08B9000A128A1543260A128A11652A5C
:100528000A128A11F7260A128A1183120313D501B7
:10053800D50ADE01DF0105305506031D5E280230AD
:100548006002031C5E2802307D02031C5E28A03076
:100558000A128A1542270A128A114130831203139C
:10056800BE003E08A5000430A6000030A700A03059
:100578000A128A15D0260A128A1183120313D5018A
:100588000A128A1138250A128A11043083120313B9
:10059800BE003E08D5000630BE003E08FD00DE0164
:1005A800DF015E280B1D6A2B643081000B11562B6E
:1005B80085167D08031DE22A5608E52A83120313CF
:1005C80057080A128A11F3270A128A118312031391
:1005D8000510E001E00A6A2B05147D03031DF62AC5
:1005E8005608F92A8312031358080A128A11F327A6
:1005F8000A128A1183120313851002303E2B8514C8
:1006080002307D06031D0A2B56080D2B8312031397
:1006180059080A128A11F3270A128A11831203133E
:10062800051103303E2B051503307D06031D1E2BD7
:100638005608212B831203135A080A128A11F3272A
:100648000A128A1183120313851104303E2B851573
:1006580004307D06031D322B5608352B83120313F5
:100668005B080A128A11F3270A128A1183120313EC
:1006780005120530A0002008E0006A2B0516053099
:100688007D06031D492B56084C2B831203135C0867
:100698000A128A11F3270A128A1183120313851288
:1006A800E0016A2B6008003A0319DC2A013A0319B1
:1006B800F02A033A0319032B013A0319172B073AB7
:1006C80003192B2B013A0319422B6A2B0B1C2D2DD6
:1006D8009101121505170130FB070318FC0A0030B9
:1006E800FC0730307C02D53003197B02031C7E2BBB
:1006F800FB01FC010E308600861B862B3130A000E2
:100708002008D600061BAD2B3230A0002008D600EA
:1007180009307C02C53003197B02031C972B41303A
:10072800A0002008D60013307C02893003197B0210
:10073800031CA22B4230A0002008D6001D307C02EA
:100748004D3003197B02031CAD2B4330A000200859
:10075800D600861AD42B3330A0002008D6000930E2
:100768007C02C53003197B02031CBE2B4430A00059
:100778002008D60013307C02893003197B02031C41
:10078800C92B4530A0002008D6001D307C024D3012
:1007980003197B02031CD42B4630A0002008D60086
:1007A800061AE52B0230A0002008D5000F307C0285
:1007B800A13003197B02031CE52B0330A00020089D
:1007C800D5000D308600861B0E2C3430A000200882
:1007D800D60009307C02C53003197B02031CF82BB4
:1007E8004730A0002008D60013307C028930031956
:1007F8007B02031C032C4830A0002008D6001D30C3
:100808007C024D3003197B02031C0E2C4930A000DA
:100818002008D600061B352C3530A0002008D6004D
:1008280009307C02C53003197B02031C1F2C4A3097
:10083800A0002008D60013307C02893003197B02FF
:10084800031C2A2C4B30A0002008D6001D307C0247
:100858004D3003197B02031C352C4C30A0002008B6
:10086800D600861A5C2C3630A0002008D600093045
:100878007C02C53003197B02031C462C4D30A000B6
:100888002008D60013307C02893003197B02031C30
:10089800512C4E30A0002008D6001D307C024D306F
:1008A80003197B02031C5C2C4F30A0002008D600E3
:1008B800061A622C0430A0002008D5000B308600F0
:1008C800861B962C3730A0002008D60009307C0201
:1008D800C53003197B02031C752C5030A00020087A
:1008E800D60013307C02893003197B02031C802C4C
:1008F8005130A0002008D6001D307C024D3003196D
:100908007B02031C8B2C5230A0002008D600273015
:100918007C02113003197B02031C962C5330A00073
:100928002008D600061BBD2C3830A0002008D600B1
:1009380009307C02C53003197B02031CA72C5430F4
:10094800A0002008D60013307C02893003197B02EE
:10095800031CB22C5530A0002008D6001D307C02A4
:100968004D3003197B02031CBD2C5630A000200813
:10097800D600861AEF2C3930A0002008D60009309E
:100988007C02C53003197B02031CCE2C5730A00013
:100998002008D60013307C02893003197B02031C1F
:1009A800D92C5830A0002008D6001D307C024D30CC
:1009B80003197B02031CE42C5930A0002008D60040
:1009C80027307C02113003197B02031CEF2C5A30AC
:1009D800A0002008D600061AF52C0530A000200833
:1009E800D50007308600861BFD2C0830A0002008A3
:1009F800D500061B1B2D3030A0002008D60009307A
:100A08007C02C53003197B02031C0E2D2030A00088
:100A18002008D60013307C02893003197B02031C9E
:100A28001B2D3030A0002008D600FB01FC01861ADF
:100A3800212D0730A0002008D500061A272D0630E2
:100A4800A0002008D5000F308600F030860005137E
:100A58000B102408FF0023088A0022088400210EB6
:100A68008300FE0E7E0E0900A03083120313A5003A
:100A78000030A6000A128A15D9250A128A11831293
:100A880003132508B2003208B5003508B200320851
:100A9800A50000300A128A11CF250A128A110130E6
:100AA80083120313B6000030B7003708803A803C41
:100AB800031D602D36083502031C8A2D831203138B
:100AC8003608FF3EA03E840083130008B2003208B7
:100AD800B4003408B2003208A50036080A128A1198
:100AE800CF250A128A11033083120313B3009730FB
:100AF800B200B20B7D2DB30B7D2D01308312031391
:100B0800B6070318B70A0030B707592D34308312D7
:100B18000313B300F130B200B20B902DB30B902D3C
:100B2800073083120313B2003208FD005330B200BD
:100B38003208D7005430B2003208D8004F30B20023
:100B48003208D9005230B2003208DA004530B2001B
:100B58003208DB004430B2003208DC000A128A1581
:100B6800B9250A128A110A128A15B9250A128A1198
:100B78000A128A15B9250A128A110A128A15B92584
:100B88000A128A110A128A15B9250A128A110A123A
:100B98008A11F726080083120313A7008316031788
:100BA8008C18D22D831203132708831203178D0084
:100BB800831203132508831203178C003F30831216
:100BC8000313A6002608831603178C058312031344
:100BD80003108B1B03148B13831603170C15553046
:100BE8008D00AA308D008C140C1183120313031C82
:060BF80008008B17080045
:100C000006308A000408840A82070034FF34FF3467
:100C10000034003400340034003400340034003434
:100C20000034003400340034003400340034003424
:100C30000034003400340034003400340034003414
:100C40003F34FF340034003400340034F6340034D0
:100C5000F734CF343F341134BF3403343F34CE340F
:100C60003F3422343F34203436343F343F34003470
:100C70003F34023400340034003400340034003493
:100C800000340034DE34FF340034003400340034E7
:100C90003F340C34AD340334FF343034ED3403349A
:100CA0007F3430347F343C34BF3420343F34CC3450
:100CB000ED343334FF34C1347334FC34FF34F03456
:100CC000D734CC34DB34CC34FF3400343F341C34E0
:100CD000FB3400343B341C343F342234ED343F3495
:100CE000FF34C034F634FC34FA34CC34D234FF341C
:100CF000D534FF34F6343334003400340034003457
:100D00000034003400340034FF34F334831203130E
:100D1000250884008317261C83130008A900AA0154
:100D20002908B1002A08B200B301B4012708FF3E28
:100D3000A90028080318013EFF3EAA003408803AA3
:100D4000AB002A08803A2B02031DA82E2908330283
:100D50000318DE2E0130831203133307A90029087C
:100D60002507AB002608AA000318AA0AA91BAA0394
:100D7000831203132A08AC002B08840083172C1C51
:100D800083130008AD0033082507AF002608AE0026
:100D90000318AE0AB31BAE03831203132E08B00070
:100DA0002F0884008317301C83132D088000013026
:100DB000B3070318B40A0030B407962E8312031346
:100DC0003108A90033082507AB002608AA0003183C
:100DD000AA0AB31BAA03831203132A08AC002B0828
:100DE000840083172C1C83132908800008008312B9
:100DF0000313D501A030A5000030A6000A128A1501
:100E0000D9250A128A11831203132608AD0025087A
:100E1000AC00FD01B001B1013108803AFF00803023
:100E20007F02031D152F063030020318322F2030A9
:100E300083120313AB003008573E84002B08831342
:100E400080000130B0070318B10A0030B107310843
:100E5000803AFF0080307F02031D302F06303002C1
:100E6000031C172F83120313AE01AF012D08803A24
:100E7000AB002F08803A2B02031D402F2E082C02B6
:100E8000031C532F203083120313AB002E08A03E07
:100E900084002B08831380000130AE070318AF0ACB
:100EA0000030AF07362F5F3083120313AB002B08DF
:100EB000D6000800203400340034003400340034FC
:100EC0000034003400340034003400340034003482
:100ED0000034003400340034003400340034003472
:100EE0000034003400340034003400340034003462
:100EF0000034003400340034003400340034003452
:100F00000034003400340034003400340034003441
:100F10000034003400340034003400340034003431
:100F20000034003400340034003400340034003421
:100F30000034003400340034003400340034003411
:100F40000034003400340034003400340034003401
:100F500000340034F5000130F6000030F700F801ED
:100F6000F901003079021030031978020318EE2FCE
:100F70007508F0007007013E84000A128A110026ED
:100F80000A128A11F1000A128A1100260A128A1125
:100F9000F20076087105F30077087205F400730813
:100FA0007404031DD72F831203130710DA2F831243
:100FB00003130714871487100310760DF600770DBE
:100FC000F7000130F8070318F90A0030F90700307C
:100FD0007902103003197802031CB82F831203130F
:100FE000071507110800FA007A08E03E0A128A1174
:040FF000AA27080024
:101B3000203420342034203400345834023401342A
:101B40005F342034203420342034203420340034D6
:101B50007E088A007F088200A8250A128A15800064
:101B6000840A04087D0603190034FF0A0319FE0ADB
:101B7000AC2D83120313A601A7012708803AA50004
:101B80005408803A2502031DC72D53082602031866
:101B90000800413083120313A500A50BCD2DD02DD5
:101BA000013083120313A6070318A70A0030A70702
:101BB000BD2D831203132508A9002608AA002908B1
:101BC000840083172A1C831300080319EC2D0130AD
:101BD000A9070318AA0ADF2D2509A7002609A800CE
:101BE000A70A0319A80A29082707A5002A08031825
:101BF0002A0A2807A600080041342D342D34573412
:101C00005234493454344534203442342D342D3444
:101C1000533448344F345734203443342D342D3426
:101C2000533454344F3452344534203444342D34F6
:101C30002D3445345834493454342034003483121C
:101C40000313A600252E83120313640083160317C3
:101C50008C18232E831203132608831203178D007A
:101C60003F3083120313A5002508831603178C0544
:101C70000C1403100C1803140030031801308312E5
:101C800003170C08080083120313BC01BD013D08B3
:101C9000803ABB003808803A3B02031D512E3708BA
:101CA0003C0203180800831203133508A500360808
:101CB000A6003A08A8003908A7000A128A11862649
:101CC0000A128A15013083120313BC070318BD0AD8
:101CD0000030BD07472E83120313A600D5015F30E5
:101CE0005606031D7D2E2030A5002608573E840091
:101CF0002508831380002030862E5608A50026086C
:101D0000573E84002508831380005608A5005E080E
:101D1000A03E8400250880005F30A5002508D6007D
:101D20000130A5002508FD070130DE070318DF0A92
:101D30000030DF07080000300A128A151F260A1239
:101D40008A1583120313A7002708A9000130AA00EF
:101D50000030AB002B08803A803C031DB12E2A08CE
:101D60002902031C0800831203132A080A128A1589
:101D70001F260A128A1583120313A7002708A8003A
:101D80002808A7002A08FF3EA03E840027088313E6
:101D900080000130AA070318AB0A0030AB07AA2E57
:101DA00083120313A9002908A8002808AA002A08FA
:101DB0008400831300080319F02E0130A8002808BE
:101DC000AA07D72E0130A6020030031CA703A702E2
:101DD0000130A8002808AA070130A8002808A50794
:101DE000260827040319FF2E250884000008A800F0
:101DF0002A088400280880000008031DE22E260817
:101E00002704031D08002A088400800108008316A7
:101E10000317880189018316031385018701831243
:101E200003138501F0308316031386008312031316
:101E300005148514051585150516851605139201DB
:101E40009101FA30831603139200831203138C104E
:101E5000643081000330831603138100F030831255
:101E6000031386000B108B168B158B17FF30831610
:101E700003139600F03095008312031387100711A7
:101E80000710080083120313AA00A801A90128085B
:101E90002A07A50025088400831300080319772F5B
:101EA00028082A07A500250884002030831300068F
:101EB0000319702F28082A07A50025088400093077
:101EC00000060319702F28082A07A500250884009A
:101ED0000A3000060319702F2908A7002808A60059
:101EE0000130A8070318A90A0030A907472F2608C0
:101EF000013E2A07A50025088400800108008312FE
:101F00000313AD002D08A9002908AC0027082804F8
:101F10000319B12F0130A7020030031CA803A80247
:101F20002608AA002508A900A50A0319A60A290857
:101F3000840083172A1C83130008AB002C0884003C
:101F40000130AC072B088313800000080319B12F60
:101F5000862F2C088400831380010130A9002908F2
:101F6000AC070130A7020030031CA803A802270A0F
:101F7000031DA92F280A03190800A92F073083126F
:101F800003135506031DDE2F9C30D3070318D40A14
:101F9000FF30D4075408803AFF0080307F02031DD1
:101FA000D32FC83053020318DB2FC830831203131A
:101FB000D3000030D40083120313D5010830550636
:101FC000031DFC2F6430D3070318D40A0030D40754
:101FD0005408803AFF0086307F02031DF12F413004
:101FE0005302031CF92F403083120313D300063031
:101FF000D40083120313D5010A128A15B9250800EB
:04400E00D4EFFFFFED
:00000001FF
